{
  "_format": "hh-sol-artifact-1",
  "contractName": "Voting",
  "sourceName": "contracts/Voting.sol",
  "abi": [
    {
      "inputs": [
        {
          "internalType": "string[]",
          "name": "_candidateNames",
          "type": "string[]"
        }
      ],
      "stateMutability": "nonpayable",
      "type": "constructor"
    },
    {
      "anonymous": false,
      "inputs": [
        {
          "indexed": false,
          "internalType": "address",
          "name": "voter",
          "type": "address"
        },
        {
          "indexed": false,
          "internalType": "string",
          "name": "candidateName",
          "type": "string"
        }
      ],
      "name": "VoteCasted",
      "type": "event"
    },
    {
      "inputs": [
        {
          "internalType": "uint256",
          "name": "",
          "type": "uint256"
        }
      ],
      "name": "candidates",
      "outputs": [
        {
          "internalType": "string",
          "name": "name",
          "type": "string"
        },
        {
          "internalType": "uint256",
          "name": "voteCount",
          "type": "uint256"
        }
      ],
      "stateMutability": "view",
      "type": "function"
    },
    {
      "inputs": [],
      "name": "getCandidates",
      "outputs": [
        {
          "components": [
            {
              "internalType": "string",
              "name": "name",
              "type": "string"
            },
            {
              "internalType": "uint256",
              "name": "voteCount",
              "type": "uint256"
            }
          ],
          "internalType": "struct Voting.Candidate[]",
          "name": "",
          "type": "tuple[]"
        }
      ],
      "stateMutability": "view",
      "type": "function"
    },
    {
      "inputs": [
        {
          "internalType": "address",
          "name": "",
          "type": "address"
        }
      ],
      "name": "hasVoted",
      "outputs": [
        {
          "internalType": "bool",
          "name": "",
          "type": "bool"
        }
      ],
      "stateMutability": "view",
      "type": "function"
    },
    {
      "inputs": [],
      "name": "owner",
      "outputs": [
        {
          "internalType": "address",
          "name": "",
          "type": "address"
        }
      ],
      "stateMutability": "view",
      "type": "function"
    },
    {
      "inputs": [
        {
          "internalType": "uint256",
          "name": "candidateIndex",
          "type": "uint256"
        }
      ],
      "name": "vote",
      "outputs": [],
      "stateMutability": "nonpayable",
      "type": "function"
    }
  ],
  "bytecode": "0x608060405234801561001057600080fd5b506040516112213803806112218339818101604052810190610032919061036a565b336000806101000a81548173ffffffffffffffffffffffffffffffffffffffff021916908373ffffffffffffffffffffffffffffffffffffffff16021790555060005b8151811015610108576002604051806040016040528084848151811061009e5761009d6103b3565b5b602002602001015181526020016000815250908060018154018082558091505060019003906000526020600020906002020160009091909190915060008201518160000190816100ee9190610603565b506020820151816001015550508080600101915050610075565b50506106d5565b6000604051905090565b600080fd5b600080fd5b600080fd5b6000601f19601f8301169050919050565b7f4e487b7100000000000000000000000000000000000000000000000000000000600052604160045260246000fd5b61017182610128565b810181811067ffffffffffffffff821117156101905761018f610139565b5b80604052505050565b60006101a361010f565b90506101af8282610168565b919050565b600067ffffffffffffffff8211156101cf576101ce610139565b5b602082029050602081019050919050565b600080fd5b600080fd5b600067ffffffffffffffff82111561020557610204610139565b5b61020e82610128565b9050602081019050919050565b60005b8381101561023957808201518184015260208101905061021e565b60008484015250505050565b6000610258610253846101ea565b610199565b905082815260208101848484011115610274576102736101e5565b5b61027f84828561021b565b509392505050565b600082601f83011261029c5761029b610123565b5b81516102ac848260208601610245565b91505092915050565b60006102c86102c3846101b4565b610199565b905080838252602082019050602084028301858111156102eb576102ea6101e0565b5b835b8181101561033257805167ffffffffffffffff8111156103105761030f610123565b5b80860161031d8982610287565b855260208501945050506020810190506102ed565b5050509392505050565b600082601f83011261035157610350610123565b5b81516103618482602086016102b5565b91505092915050565b6000602082840312156103805761037f610119565b5b600082015167ffffffffffffffff81111561039e5761039d61011e565b5b6103aa8482850161033c565b91505092915050565b7f4e487b7100000000000000000000000000000000000000000000000000000000600052603260045260246000fd5b600081519050919050565b7f4e487b7100000000000000000000000000000000000000000000000000000000600052602260045260246000fd5b6000600282049050600182168061043457607f821691505b602082108103610447576104466103ed565b5b50919050565b60008190508160005260206000209050919050565b60006020601f8301049050919050565b600082821b905092915050565b6000600883026104af7fffffffffffffffffffffffffffffffffffffffffffffffffffffffffffffffff82610472565b6104b98683610472565b95508019841693508086168417925050509392505050565b6000819050919050565b6000819050919050565b60006105006104fb6104f6846104d1565b6104db565b6104d1565b9050919050565b6000819050919050565b61051a836104e5565b61052e61052682610507565b84845461047f565b825550505050565b600090565b610543610536565b61054e818484610511565b505050565b5b818110156105725761056760008261053b565b600181019050610554565b5050565b601f8211156105b7576105888161044d565b61059184610462565b810160208510156105a0578190505b6105b46105ac85610462565b830182610553565b50505b505050565b600082821c905092915050565b60006105da600019846008026105bc565b1980831691505092915050565b60006105f383836105c9565b9150826002028217905092915050565b61060c826103e2565b67ffffffffffffffff81111561062557610624610139565b5b61062f825461041c565b61063a828285610576565b600060209050601f83116001811461066d576000841561065b578287015190505b61066585826105e7565b8655506106cd565b601f19841661067b8661044d565b60005b828110156106a35784890151825560018201915060208501945060208101905061067e565b868310156106c057848901516106bc601f8916826105c9565b8355505b6001600288020188555050505b505050505050565b610b3d806106e46000396000f3fe608060405234801561001057600080fd5b50600436106100575760003560e01c80630121b93f1461005c57806306a49fce1461007857806309eef43e146100965780633477ee2e146100c65780638da5cb5b146100f7575b600080fd5b61007660048036038101906100719190610513565b610115565b005b6100806102dd565b60405161008d91906106de565b60405180910390f35b6100b060048036038101906100ab919061075e565b6103d8565b6040516100bd91906107a6565b60405180910390f35b6100e060048036038101906100db9190610513565b6103f8565b6040516100ee92919061081a565b60405180910390f35b6100ff6104b4565b60405161010c9190610859565b60405180910390f35b600280549050811061015c576040517f08c379a0000000000000000000000000000000000000000000000000000000008152600401610153906108c0565b60405180910390fd5b600160003373ffffffffffffffffffffffffffffffffffffffff1673ffffffffffffffffffffffffffffffffffffffff16815260200190815260200160002060009054906101000a900460ff16156101e9576040517f08c379a00000000000000000000000000000000000000000000000000000000081526004016101e09061092c565b60405180910390fd5b60018060003373ffffffffffffffffffffffffffffffffffffffff1673ffffffffffffffffffffffffffffffffffffffff16815260200190815260200160002060006101000a81548160ff0219169083151502179055506001600282815481106102565761025561094c565b5b9060005260206000209060020201600101600082825461027691906109aa565b925050819055507fb7821d50dfbda5ea310faebbeac5217bc1bb0cabe463e76b80e48d11e57df09833600283815481106102b3576102b261094c565b5b90600052602060002090600202016000016040516102d2929190610ad7565b60405180910390a150565b60606002805480602002602001604051908101604052809291908181526020016000905b828210156103cf578382906000526020600020906002020160405180604001604052908160008201805461033490610a0d565b80601f016020809104026020016040519081016040528092919081815260200182805461036090610a0d565b80156103ad5780601f10610382576101008083540402835291602001916103ad565b820191906000526020600020905b81548152906001019060200180831161039057829003601f168201915b5050505050815260200160018201548152505081526020019060010190610301565b50505050905090565b60016020528060005260406000206000915054906101000a900460ff1681565b6002818154811061040857600080fd5b906000526020600020906002020160009150905080600001805461042b90610a0d565b80601f016020809104026020016040519081016040528092919081815260200182805461045790610a0d565b80156104a45780601f10610479576101008083540402835291602001916104a4565b820191906000526020600020905b81548152906001019060200180831161048757829003601f168201915b5050505050908060010154905082565b60008054906101000a900473ffffffffffffffffffffffffffffffffffffffff1681565b600080fd5b6000819050919050565b6104f0816104dd565b81146104fb57600080fd5b50565b60008135905061050d816104e7565b92915050565b600060208284031215610529576105286104d8565b5b6000610537848285016104fe565b91505092915050565b600081519050919050565b600082825260208201905092915050565b6000819050602082019050919050565b600081519050919050565b600082825260208201905092915050565b60005b838110156105a657808201518184015260208101905061058b565b60008484015250505050565b6000601f19601f8301169050919050565b60006105ce8261056c565b6105d88185610577565b93506105e8818560208601610588565b6105f1816105b2565b840191505092915050565b610605816104dd565b82525050565b6000604083016000830151848203600086015261062882826105c3565b915050602083015161063d60208601826105fc565b508091505092915050565b6000610654838361060b565b905092915050565b6000602082019050919050565b600061067482610540565b61067e818561054b565b9350836020820285016106908561055c565b8060005b858110156106cc57848403895281516106ad8582610648565b94506106b88361065c565b925060208a01995050600181019050610694565b50829750879550505050505092915050565b600060208201905081810360008301526106f88184610669565b905092915050565b600073ffffffffffffffffffffffffffffffffffffffff82169050919050565b600061072b82610700565b9050919050565b61073b81610720565b811461074657600080fd5b50565b60008135905061075881610732565b92915050565b600060208284031215610774576107736104d8565b5b600061078284828501610749565b91505092915050565b60008115159050919050565b6107a08161078b565b82525050565b60006020820190506107bb6000830184610797565b92915050565b600082825260208201905092915050565b60006107dd8261056c565b6107e781856107c1565b93506107f7818560208601610588565b610800816105b2565b840191505092915050565b610814816104dd565b82525050565b6000604082019050818103600083015261083481856107d2565b9050610843602083018461080b565b9392505050565b61085381610720565b82525050565b600060208201905061086e600083018461084a565b92915050565b7f496e76616c69642063616e64696461746520696e646578000000000000000000600082015250565b60006108aa6017836107c1565b91506108b582610874565b602082019050919050565b600060208201905081810360008301526108d98161089d565b9050919050565b7f596f75206861766520616c726561647920766f74656400000000000000000000600082015250565b60006109166016836107c1565b9150610921826108e0565b602082019050919050565b6000602082019050818103600083015261094581610909565b9050919050565b7f4e487b7100000000000000000000000000000000000000000000000000000000600052603260045260246000fd5b7f4e487b7100000000000000000000000000000000000000000000000000000000600052601160045260246000fd5b60006109b5826104dd565b91506109c0836104dd565b92508282019050808211156109d8576109d761097b565b5b92915050565b7f4e487b7100000000000000000000000000000000000000000000000000000000600052602260045260246000fd5b60006002820490506001821680610a2557607f821691505b602082108103610a3857610a376109de565b5b50919050565b60008190508160005260206000209050919050565b60008154610a6081610a0d565b610a6a81866107c1565b94506001821660008114610a855760018114610a9b57610ace565b60ff198316865281151560200286019350610ace565b610aa485610a3e565b60005b83811015610ac657815481890152600182019150602081019050610aa7565b808801955050505b50505092915050565b6000604082019050610aec600083018561084a565b8181036020830152610afe8184610a53565b9050939250505056fea264697066735822122051cff28ed3c3ff554708d9c025886d0c7bc52383ccb86cd46e76d6dc1f4e75c064736f6c634300081c0033",
  "linkReferences": {},
  "deployedLinkReferences": {}
}