{
  "_format": "hh-sol-artifact-1",
  "contractName": "VotingSystem",
  "sourceName": "contracts/VotingSyetem.sol",
  "abi": [
    {
      "inputs": [
        {
          "internalType": "string",
          "name": "_title",
          "type": "string"
        },
        {
          "internalType": "string[]",
          "name": "_options",
          "type": "string[]"
        },
        {
          "internalType": "uint256",
          "name": "_startTime",
          "type": "uint256"
        },
        {
          "internalType": "uint256",
          "name": "_endTime",
          "type": "uint256"
        }
      ],
      "stateMutability": "nonpayable",
      "type": "constructor"
    },
    {
      "anonymous": false,
      "inputs": [
        {
          "indexed": false,
          "internalType": "uint256",
          "name": "voteId",
          "type": "uint256"
        },
        {
          "indexed": false,
          "internalType": "string",
          "name": "title",
          "type": "string"
        },
        {
          "indexed": false,
          "internalType": "uint256",
          "name": "startTime",
          "type": "uint256"
        },
        {
          "indexed": false,
          "internalType": "uint256",
          "name": "endTime",
          "type": "uint256"
        }
      ],
      "name": "VoteCreated",
      "type": "event"
    },
    {
      "anonymous": false,
      "inputs": [
        {
          "indexed": false,
          "internalType": "uint256",
          "name": "voteId",
          "type": "uint256"
        },
        {
          "indexed": false,
          "internalType": "uint256",
          "name": "optionIndex",
          "type": "uint256"
        },
        {
          "indexed": false,
          "internalType": "address",
          "name": "voter",
          "type": "address"
        }
      ],
      "name": "Voted",
      "type": "event"
    },
    {
      "inputs": [
        {
          "internalType": "string",
          "name": "_title",
          "type": "string"
        },
        {
          "internalType": "string[]",
          "name": "_options",
          "type": "string[]"
        },
        {
          "internalType": "uint256",
          "name": "_startTime",
          "type": "uint256"
        },
        {
          "internalType": "uint256",
          "name": "_endTime",
          "type": "uint256"
        }
      ],
      "name": "createVote",
      "outputs": [],
      "stateMutability": "nonpayable",
      "type": "function"
    },
    {
      "inputs": [],
      "name": "getAllVotes",
      "outputs": [
        {
          "components": [
            {
              "internalType": "uint256",
              "name": "id",
              "type": "uint256"
            },
            {
              "internalType": "string",
              "name": "title",
              "type": "string"
            },
            {
              "internalType": "uint256",
              "name": "startTime",
              "type": "uint256"
            },
            {
              "internalType": "uint256",
              "name": "endTime",
              "type": "uint256"
            }
          ],
          "internalType": "struct VotingSystem.VoteInfo[]",
          "name": "",
          "type": "tuple[]"
        }
      ],
      "stateMutability": "view",
      "type": "function"
    },
    {
      "inputs": [
        {
          "internalType": "uint256",
          "name": "_voteId",
          "type": "uint256"
        }
      ],
      "name": "getVote",
      "outputs": [
        {
          "components": [
            {
              "internalType": "uint256",
              "name": "id",
              "type": "uint256"
            },
            {
              "internalType": "string",
              "name": "title",
              "type": "string"
            },
            {
              "components": [
                {
                  "internalType": "string",
                  "name": "option",
                  "type": "string"
                },
                {
                  "internalType": "uint256",
                  "name": "votes",
                  "type": "uint256"
                }
              ],
              "internalType": "struct VotingSystem.VoteOption[]",
              "name": "options",
              "type": "tuple[]"
            },
            {
              "internalType": "uint256",
              "name": "createTime",
              "type": "uint256"
            },
            {
              "internalType": "uint256",
              "name": "startTime",
              "type": "uint256"
            },
            {
              "internalType": "uint256",
              "name": "endTime",
              "type": "uint256"
            },
            {
              "internalType": "bool",
              "name": "exists",
              "type": "bool"
            }
          ],
          "internalType": "struct VotingSystem.VoteView",
          "name": "",
          "type": "tuple"
        }
      ],
      "stateMutability": "view",
      "type": "function"
    },
    {
      "inputs": [],
      "name": "owner",
      "outputs": [
        {
          "internalType": "address",
          "name": "",
          "type": "address"
        }
      ],
      "stateMutability": "view",
      "type": "function"
    },
    {
      "inputs": [
        {
          "internalType": "uint256",
          "name": "_voteId",
          "type": "uint256"
        },
        {
          "internalType": "uint256",
          "name": "_optionIndex",
          "type": "uint256"
        }
      ],
      "name": "vote",
      "outputs": [],
      "stateMutability": "nonpayable",
      "type": "function"
    },
    {
      "inputs": [],
      "name": "voteCount",
      "outputs": [
        {
          "internalType": "uint256",
          "name": "",
          "type": "uint256"
        }
      ],
      "stateMutability": "view",
      "type": "function"
    },
    {
      "inputs": [
        {
          "internalType": "uint256",
          "name": "",
          "type": "uint256"
        }
      ],
      "name": "votes",
      "outputs": [
        {
          "internalType": "string",
          "name": "title",
          "type": "string"
        },
        {
          "internalType": "uint256",
          "name": "createTime",
          "type": "uint256"
        },
        {
          "internalType": "uint256",
          "name": "startTime",
          "type": "uint256"
        },
        {
          "internalType": "uint256",
          "name": "endTime",
          "type": "uint256"
        },
        {
          "internalType": "bool",
          "name": "exists",
          "type": "bool"
        }
      ],
      "stateMutability": "view",
      "type": "function"
    }
  ],
  "bytecode": "0x608060405234801561001057600080fd5b5060405161273a38038061273a833981810160405281019061003291906104a7565b600283511015610077576040517f08c379a000000000000000000000000000000000000000000000000000000000815260040161006e906105c9565b60405180910390fd5b8181116100b9576040517f08c379a00000000000000000000000000000000000000000000000000000000081526004016100b09061065b565b60405180910390fd5b60006002600060015481526020019081526020016000209050848160000190816100e39190610892565b5082816003018190555081816004018190555042816002018190555060018160060160006101000a81548160ff02191690831515021790555060005b84518110156101b45781600101604051806040016040528087848151811061014a57610149610964565b5b6020026020010151815260200160008152509080600181540180825580915050600190039060005260206000209060020201600090919091909150600082015181600001908161019a9190610892565b50602082015181600101555050808060010191505061011f565b507f6912e5abe531ca5f3b6f973f97278ab6731cdec0178a7b3c2c7a5822a3f1732b6001548685856040516101ec94939291906109db565b60405180910390a16001600081548092919061020790610a56565b91905055505050505050610a9e565b6000604051905090565b600080fd5b600080fd5b600080fd5b600080fd5b6000601f19601f8301169050919050565b7f4e487b7100000000000000000000000000000000000000000000000000000000600052604160045260246000fd5b61027d82610234565b810181811067ffffffffffffffff8211171561029c5761029b610245565b5b80604052505050565b60006102af610216565b90506102bb8282610274565b919050565b600067ffffffffffffffff8211156102db576102da610245565b5b6102e482610234565b9050602081019050919050565b60005b8381101561030f5780820151818401526020810190506102f4565b60008484015250505050565b600061032e610329846102c0565b6102a5565b90508281526020810184848401111561034a5761034961022f565b5b6103558482856102f1565b509392505050565b600082601f8301126103725761037161022a565b5b815161038284826020860161031b565b91505092915050565b600067ffffffffffffffff8211156103a6576103a5610245565b5b602082029050602081019050919050565b600080fd5b60006103cf6103ca8461038b565b6102a5565b905080838252602082019050602084028301858111156103f2576103f16103b7565b5b835b8181101561043957805167ffffffffffffffff8111156104175761041661022a565b5b808601610424898261035d565b855260208501945050506020810190506103f4565b5050509392505050565b600082601f8301126104585761045761022a565b5b81516104688482602086016103bc565b91505092915050565b6000819050919050565b61048481610471565b811461048f57600080fd5b50565b6000815190506104a18161047b565b92915050565b600080600080608085870312156104c1576104c0610220565b5b600085015167ffffffffffffffff8111156104df576104de610225565b5b6104eb8782880161035d565b945050602085015167ffffffffffffffff81111561050c5761050b610225565b5b61051887828801610443565b935050604061052987828801610492565b925050606061053a87828801610492565b91505092959194509250565b600082825260208201905092915050565b7f4174206c656173742074776f206f7074696f6e7320617265207265717569726560008201527f6400000000000000000000000000000000000000000000000000000000000000602082015250565b60006105b3602183610546565b91506105be82610557565b604082019050919050565b600060208201905081810360008301526105e2816105a6565b9050919050565b7f456e642074696d65206d7573742062652067726561746572207468616e20737460008201527f6172742074696d65000000000000000000000000000000000000000000000000602082015250565b6000610645602883610546565b9150610650826105e9565b604082019050919050565b6000602082019050818103600083015261067481610638565b9050919050565b600081519050919050565b7f4e487b7100000000000000000000000000000000000000000000000000000000600052602260045260246000fd5b600060028204905060018216806106cd57607f821691505b6020821081036106e0576106df610686565b5b50919050565b60008190508160005260206000209050919050565b60006020601f8301049050919050565b600082821b905092915050565b6000600883026107487fffffffffffffffffffffffffffffffffffffffffffffffffffffffffffffffff8261070b565b610752868361070b565b95508019841693508086168417925050509392505050565b6000819050919050565b600061078f61078a61078584610471565b61076a565b610471565b9050919050565b6000819050919050565b6107a983610774565b6107bd6107b582610796565b848454610718565b825550505050565b600090565b6107d26107c5565b6107dd8184846107a0565b505050565b5b81811015610801576107f66000826107ca565b6001810190506107e3565b5050565b601f82111561084657610817816106e6565b610820846106fb565b8101602085101561082f578190505b61084361083b856106fb565b8301826107e2565b50505b505050565b600082821c905092915050565b60006108696000198460080261084b565b1980831691505092915050565b60006108828383610858565b9150826002028217905092915050565b61089b8261067b565b67ffffffffffffffff8111156108b4576108b3610245565b5b6108be82546106b5565b6108c9828285610805565b600060209050601f8311600181146108fc57600084156108ea578287015190505b6108f48582610876565b86555061095c565b601f19841661090a866106e6565b60005b828110156109325784890151825560018201915060208501945060208101905061090d565b8683101561094f578489015161094b601f891682610858565b8355505b6001600288020188555050505b505050505050565b7f4e487b7100000000000000000000000000000000000000000000000000000000600052603260045260246000fd5b61099c81610471565b82525050565b60006109ad8261067b565b6109b78185610546565b93506109c78185602086016102f1565b6109d081610234565b840191505092915050565b60006080820190506109f06000830187610993565b8181036020830152610a0281866109a2565b9050610a116040830185610993565b610a1e6060830184610993565b95945050505050565b7f4e487b7100000000000000000000000000000000000000000000000000000000600052601160045260246000fd5b6000610a6182610471565b91507fffffffffffffffffffffffffffffffffffffffffffffffffffffffffffffffff8203610a9357610a92610a27565b5b600182019050919050565b611c8d80610aad6000396000f3fe608060405234801561001057600080fd5b506004361061007d5760003560e01c80638da5cb5b1161005b5780638da5cb5b14610104578063b384abef14610122578063c63840711461013e578063efef28bb1461015c5761007d565b80635a55c1f0146100825780635df81330146100b2578063851b6ef2146100e6575b600080fd5b61009c60048036038101906100979190610d11565b610178565b6040516100a99190610f9a565b60405180910390f35b6100cc60048036038101906100c79190610d11565b610429565b6040516100dd959493929190611024565b60405180910390f35b6100ee6104f4565b6040516100fb91906111a3565b60405180910390f35b61010c61074a565b6040516101199190611206565b60405180910390f35b61013c60048036038101906101379190611221565b61076e565b005b610146610a79565b6040516101539190611261565b60405180910390f35b61017660048036038101906101719190611497565b610a7f565b005b610180610c60565b6002600083815260200190815260200160002060060160009054906101000a900460ff166101e3576040517f08c379a00000000000000000000000000000000000000000000000000000000081526004016101da90611582565b60405180910390fd5b6040518060e00160405280838152602001600260008581526020019081526020016000206000018054610215906115d1565b80601f0160208091040260200160405190810160405280929190818152602001828054610241906115d1565b801561028e5780601f106102635761010080835404028352916020019161028e565b820191906000526020600020905b81548152906001019060200180831161027157829003601f168201915b5050505050815260200160026000858152602001908152602001600020600101805480602002602001604051908101604052809291908181526020016000905b8282101561039c5783829060005260206000209060020201604051806040016040529081600082018054610301906115d1565b80601f016020809104026020016040519081016040528092919081815260200182805461032d906115d1565b801561037a5780601f1061034f5761010080835404028352916020019161037a565b820191906000526020600020905b81548152906001019060200180831161035d57829003601f168201915b50505050508152602001600182015481525050815260200190600101906102ce565b5050505081526020016002600085815260200190815260200160002060020154815260200160026000858152602001908152602001600020600301548152602001600260008581526020019081526020016000206004015481526020016002600085815260200190815260200160002060060160009054906101000a900460ff1615158152509050919050565b600260205280600052604060002060009150905080600001805461044c906115d1565b80601f0160208091040260200160405190810160405280929190818152602001828054610478906115d1565b80156104c55780601f1061049a576101008083540402835291602001916104c5565b820191906000526020600020905b8154815290600101906020018083116104a857829003601f168201915b5050505050908060020154908060030154908060040154908060060160009054906101000a900460ff16905085565b60606000805b60015481101561056b576002600082815260200190815260200160002060060160009054906101000a900460ff16801561054a575060026000828152602001908152602001600020600401544211155b1561055e57818061055a90611631565b9250505b80806001019150506104fa565b5060008167ffffffffffffffff81111561058857610587611286565b5b6040519080825280602002602001820160405280156105c157816020015b6105ae610c9f565b8152602001906001900390816105a65790505b5090506000805b600154811015610740576002600082815260200190815260200160002060060160009054906101000a900460ff168015610618575060026000828152602001908152602001600020600401544211155b1561073357604051806080016040528082815260200160026000848152602001908152602001600020600001805461064f906115d1565b80601f016020809104026020016040519081016040528092919081815260200182805461067b906115d1565b80156106c85780601f1061069d576101008083540402835291602001916106c8565b820191906000526020600020905b8154815290600101906020018083116106ab57829003601f168201915b5050505050815260200160026000848152602001908152602001600020600301548152602001600260008481526020019081526020016000206004015481525083838061071490611631565b94508151811061072757610726611679565b5b60200260200101819052505b80806001019150506105c8565b5081935050505090565b60008054906101000a900473ffffffffffffffffffffffffffffffffffffffff1681565b6002600083815260200190815260200160002060060160009054906101000a900460ff166107d1576040517f08c379a00000000000000000000000000000000000000000000000000000000081526004016107c890611582565b60405180910390fd5b600260008381526020019081526020016000206003015442101561082a576040517f08c379a0000000000000000000000000000000000000000000000000000000008152600401610821906116f4565b60405180910390fd5b6002600083815260200190815260200160002060040154421115610883576040517f08c379a000000000000000000000000000000000000000000000000000000000815260040161087a90611760565b60405180910390fd5b600260008381526020019081526020016000206001018054905081106108de576040517f08c379a00000000000000000000000000000000000000000000000000000000081526004016108d5906117cc565b60405180910390fd5b6002600083815260200190815260200160002060050160003373ffffffffffffffffffffffffffffffffffffffff1673ffffffffffffffffffffffffffffffffffffffff16815260200190815260200160002060009054906101000a900460ff161561097f576040517f08c379a000000000000000000000000000000000000000000000000000000000815260040161097690611838565b60405180910390fd5b60016002600084815260200190815260200160002060050160003373ffffffffffffffffffffffffffffffffffffffff1673ffffffffffffffffffffffffffffffffffffffff16815260200190815260200160002060006101000a81548160ff021916908315150217905550600260008381526020019081526020016000206001018181548110610a1357610a12611679565b5b90600052602060002090600202016001016000815480929190610a3590611631565b91905055507fd91ecafccf238642dccd41161308b3eebe62a12bc5819daf5164780c221ec95b828233604051610a6d93929190611858565b60405180910390a15050565b60015481565b600283511015610ac4576040517f08c379a0000000000000000000000000000000000000000000000000000000008152600401610abb906118db565b60405180910390fd5b818111610b06576040517f08c379a0000000000000000000000000000000000000000000000000000000008152600401610afd9061196d565b60405180910390fd5b6000600260006001548152602001908152602001600020905084816000019081610b309190611b39565b5082816003018190555081816004018190555042816002018190555060018160060160006101000a81548160ff02191690831515021790555060005b8451811015610c0157816001016040518060400160405280878481518110610b9757610b96611679565b5b60200260200101518152602001600081525090806001815401808255809150506001900390600052602060002090600202016000909190919091506000820151816000019081610be79190611b39565b506020820151816001015550508080600101915050610b6c565b507f6912e5abe531ca5f3b6f973f97278ab6731cdec0178a7b3c2c7a5822a3f1732b600154868585604051610c399493929190611c0b565b60405180910390a160016000815480929190610c5490611631565b91905055505050505050565b6040518060e001604052806000815260200160608152602001606081526020016000815260200160008152602001600081526020016000151581525090565b6040518060800160405280600081526020016060815260200160008152602001600081525090565b6000604051905090565b600080fd5b600080fd5b6000819050919050565b610cee81610cdb565b8114610cf957600080fd5b50565b600081359050610d0b81610ce5565b92915050565b600060208284031215610d2757610d26610cd1565b5b6000610d3584828501610cfc565b91505092915050565b610d4781610cdb565b82525050565b600081519050919050565b600082825260208201905092915050565b60005b83811015610d87578082015181840152602081019050610d6c565b60008484015250505050565b6000601f19601f8301169050919050565b6000610daf82610d4d565b610db98185610d58565b9350610dc9818560208601610d69565b610dd281610d93565b840191505092915050565b600081519050919050565b600082825260208201905092915050565b6000819050602082019050919050565b60006040830160008301518482036000860152610e268282610da4565b9150506020830151610e3b6020860182610d3e565b508091505092915050565b6000610e528383610e09565b905092915050565b6000602082019050919050565b6000610e7282610ddd565b610e7c8185610de8565b935083602082028501610e8e85610df9565b8060005b85811015610eca5784840389528151610eab8582610e46565b9450610eb683610e5a565b925060208a01995050600181019050610e92565b50829750879550505050505092915050565b60008115159050919050565b610ef181610edc565b82525050565b600060e083016000830151610f0f6000860182610d3e565b5060208301518482036020860152610f278282610da4565b91505060408301518482036040860152610f418282610e67565b9150506060830151610f566060860182610d3e565b506080830151610f696080860182610d3e565b5060a0830151610f7c60a0860182610d3e565b5060c0830151610f8f60c0860182610ee8565b508091505092915050565b60006020820190508181036000830152610fb48184610ef7565b905092915050565b600082825260208201905092915050565b6000610fd882610d4d565b610fe28185610fbc565b9350610ff2818560208601610d69565b610ffb81610d93565b840191505092915050565b61100f81610cdb565b82525050565b61101e81610edc565b82525050565b600060a082019050818103600083015261103e8188610fcd565b905061104d6020830187611006565b61105a6040830186611006565b6110676060830185611006565b6110746080830184611015565b9695505050505050565b600081519050919050565b600082825260208201905092915050565b6000819050602082019050919050565b60006080830160008301516110c26000860182610d3e565b50602083015184820360208601526110da8282610da4565b91505060408301516110ef6040860182610d3e565b5060608301516111026060860182610d3e565b508091505092915050565b600061111983836110aa565b905092915050565b6000602082019050919050565b60006111398261107e565b6111438185611089565b9350836020820285016111558561109a565b8060005b858110156111915784840389528151611172858261110d565b945061117d83611121565b925060208a01995050600181019050611159565b50829750879550505050505092915050565b600060208201905081810360008301526111bd818461112e565b905092915050565b600073ffffffffffffffffffffffffffffffffffffffff82169050919050565b60006111f0826111c5565b9050919050565b611200816111e5565b82525050565b600060208201905061121b60008301846111f7565b92915050565b6000806040838503121561123857611237610cd1565b5b600061124685828601610cfc565b925050602061125785828601610cfc565b9150509250929050565b60006020820190506112766000830184611006565b92915050565b600080fd5b600080fd5b7f4e487b7100000000000000000000000000000000000000000000000000000000600052604160045260246000fd5b6112be82610d93565b810181811067ffffffffffffffff821117156112dd576112dc611286565b5b80604052505050565b60006112f0610cc7565b90506112fc82826112b5565b919050565b600067ffffffffffffffff82111561131c5761131b611286565b5b61132582610d93565b9050602081019050919050565b82818337600083830152505050565b600061135461134f84611301565b6112e6565b9050828152602081018484840111156113705761136f611281565b5b61137b848285611332565b509392505050565b600082601f8301126113985761139761127c565b5b81356113a8848260208601611341565b91505092915050565b600067ffffffffffffffff8211156113cc576113cb611286565b5b602082029050602081019050919050565b600080fd5b60006113f56113f0846113b1565b6112e6565b90508083825260208201905060208402830185811115611418576114176113dd565b5b835b8181101561145f57803567ffffffffffffffff81111561143d5761143c61127c565b5b80860161144a8982611383565b8552602085019450505060208101905061141a565b5050509392505050565b600082601f83011261147e5761147d61127c565b5b813561148e8482602086016113e2565b91505092915050565b600080600080608085870312156114b1576114b0610cd1565b5b600085013567ffffffffffffffff8111156114cf576114ce610cd6565b5b6114db87828801611383565b945050602085013567ffffffffffffffff8111156114fc576114fb610cd6565b5b61150887828801611469565b935050604061151987828801610cfc565b925050606061152a87828801610cfc565b91505092959194509250565b7f54686520766f746520646f6573206e6f74206578697374000000000000000000600082015250565b600061156c601783610fbc565b915061157782611536565b602082019050919050565b6000602082019050818103600083015261159b8161155f565b9050919050565b7f4e487b7100000000000000000000000000000000000000000000000000000000600052602260045260246000fd5b600060028204905060018216806115e957607f821691505b6020821081036115fc576115fb6115a2565b5b50919050565b7f4e487b7100000000000000000000000000000000000000000000000000000000600052601160045260246000fd5b600061163c82610cdb565b91507fffffffffffffffffffffffffffffffffffffffffffffffffffffffffffffffff820361166e5761166d611602565b5b600182019050919050565b7f4e487b7100000000000000000000000000000000000000000000000000000000600052603260045260246000fd5b7f566f74696e6720686173206e6f74207374617274656400000000000000000000600082015250565b60006116de601683610fbc565b91506116e9826116a8565b602082019050919050565b6000602082019050818103600083015261170d816116d1565b9050919050565b7f566f74696e6720706572696f642068617320656e646564000000000000000000600082015250565b600061174a601783610fbc565b915061175582611714565b602082019050919050565b600060208201905081810360008301526117798161173d565b9050919050565b7f496e76616c6964206f7074696f6e20696e646578000000000000000000000000600082015250565b60006117b6601483610fbc565b91506117c182611780565b602082019050919050565b600060208201905081810360008301526117e5816117a9565b9050919050565b7f596f75206861766520616c726561647920766f74656400000000000000000000600082015250565b6000611822601683610fbc565b915061182d826117ec565b602082019050919050565b6000602082019050818103600083015261185181611815565b9050919050565b600060608201905061186d6000830186611006565b61187a6020830185611006565b61188760408301846111f7565b949350505050565b7f4174206c656173742074776f206f7074696f6e73207265717569726564000000600082015250565b60006118c5601d83610fbc565b91506118d08261188f565b602082019050919050565b600060208201905081810360008301526118f4816118b8565b9050919050565b7f456e642074696d65206d7573742062652067726561746572207468616e20737460008201527f6172742074696d65000000000000000000000000000000000000000000000000602082015250565b6000611957602883610fbc565b9150611962826118fb565b604082019050919050565b600060208201905081810360008301526119868161194a565b9050919050565b60008190508160005260206000209050919050565b60006020601f8301049050919050565b600082821b905092915050565b6000600883026119ef7fffffffffffffffffffffffffffffffffffffffffffffffffffffffffffffffff826119b2565b6119f986836119b2565b95508019841693508086168417925050509392505050565b6000819050919050565b6000611a36611a31611a2c84610cdb565b611a11565b610cdb565b9050919050565b6000819050919050565b611a5083611a1b565b611a64611a5c82611a3d565b8484546119bf565b825550505050565b600090565b611a79611a6c565b611a84818484611a47565b505050565b5b81811015611aa857611a9d600082611a71565b600181019050611a8a565b5050565b601f821115611aed57611abe8161198d565b611ac7846119a2565b81016020851015611ad6578190505b611aea611ae2856119a2565b830182611a89565b50505b505050565b600082821c905092915050565b6000611b1060001984600802611af2565b1980831691505092915050565b6000611b298383611aff565b9150826002028217905092915050565b611b4282610d4d565b67ffffffffffffffff811115611b5b57611b5a611286565b5b611b6582546115d1565b611b70828285611aac565b600060209050601f831160018114611ba35760008415611b91578287015190505b611b9b8582611b1d565b865550611c03565b601f198416611bb18661198d565b60005b82811015611bd957848901518255600182019150602085019450602081019050611bb4565b86831015611bf65784890151611bf2601f891682611aff565b8355505b6001600288020188555050505b505050505050565b6000608082019050611c206000830187611006565b8181036020830152611c328186610fcd565b9050611c416040830185611006565b611c4e6060830184611006565b9594505050505056fea26469706673582212200d6f04c0b5e8a073d2aaf1ef072cacd97663a099bb422a6ff6073d861df73d5d64736f6c634300081c0033",
  "linkReferences": {},
  "deployedLinkReferences": {}
}